S015000050726F6A65746F53656E736F722E73726563B2
S21440000020390020E1064000DD064000DD064000C5
S214400010DD064000DD064000DD0640000000000032
S214400020000000000000000000000000DD06400068
S214400030DD06400000000000DD064000DD06400012
S214400040DD064000DD064000DD064000DD064000DF
S214400050DD064000DD064000DD064000DD064000CF
S214400060DD064000DD064000000000005905400067
S2144000706D05400081054000DD064000DD0640007D
S2144000800000000000000000DD064000DD064000E5
S214400090DD064000DD064000DD0640006D094000FC
S2144000A0DD064000DD064000DD064000DD0640007F
S2144000B0DD064000DD064000DD064000DD0640006F
S2144000C0DD064000DD064000DD06400010B5054C6C
S2144000D0237833B9044B13B10448AFF300800123AF
S2144000E0237010BD4C08002000000000881340001C
S2144000F0084B10B51BB108480849AFF300800848C4
S214400100036803B910BD074B002BFBD0BDE8104079
S214400110184700BF00000000881340005008002029
S214400120881340000000000010B50E480E4B98475C
S21440013000203E210D4B98470D4CA0470028FCD090
S2144001400C4B98470C4A0D4B9A620D4CA047002822
S214400150FCD010200B4B98470B4B98470148024B5E
S214400160984710BD000E2707A5084000FD05400033
S2144001705106400061064000013F132000040E4037
S21440018071064000950540009107400010B54FF4B9
S2144001900042104B5A600B200F4CA0470C20A04743
S2144001A00D20A04713204FF060510C4CA047142060
S2144001B04FF06051A04723200949A0474C200949E9
S2144001C0A04709484FF4C0614FF00062074B98477C
S2144001D010BD00BF50140E4081064000F1024000A2
S2144001E07900002859000028000E0E4015044000F3
S2144001F001637047416370474264B1F1C05F2FD0DE
S21440020007D8B1F1006F14D0B1F1805F1ED039B974
S2144002107047B1F1205F37D004D8B1F1005F29D0E4
S21440022042607047B1F1405F2ED0B1F1605F2BD095
S214400230F6E710B4016F046FD343214019400167BD
S214400240416F446F21400B4043671AE0036F1343EE
S2144002500367436F416F0B4023EA02034367DFE7C0
S214400260036F016F0B4023EA02030367436F134398
S2144002704367D5E7036F13430367436F13434367EF
S214400280CEE742605DF8044B704700BF416412F011
S214400290010F14BF4166016612F00A0F14BF0162D7
S2144002A0416212F0020F02D0C0F8801004E012F053
S2144002B0080F18BFC0F8841041610160704700BF46
S2144002C010B44164019C0CB1416600E001660BB17C
S2144002D0016500E041650AB1016300E041630161E8
S2144002E001605DF8044B7047C06C7047806C704787
S2144002F070B582B00D46430903F5001303F2077349
S2144003005C0201F0F043B3F1005F47D009D8B3F187
S214400310805F21D0B3F1C05F2FD0B3F1006F6FD1B3
S21440032009E0B3F1405F55D0B3F1605F52D0B3F10E
S214400330205F44D064E000F01F000126864020463F
S2144003404FF000613246304B984715F0010F14BF0E
S21440035066662666012054E000F01F0001268640AF
S21440036020464FF080513246274B984715F0010FF4
S21440037014BF66662666012043E000F01F00012693
S214400380864020464FF0C05132461F4B984715F0E6
S214400390010F14BF66662666012032E000F01F009B
S2144003A00126864020464FF000513246164B98476D
S2144003B015F0010F14BF66662666012021E000F0A6
S2144003C01F030126204606FA03F12A460F4B98479C
S2144003D0304616E000F01F03012605F0605205EA9D
S2144003E006010091204606FA03F1B2F1605F14BFA1
S2144003F000220122C5F38003054CA047304600E0AA
S214400400002002B070BD00BFF90140008D024000E0
S214400410C102400070B582B006460D46144602F052
S214400420F043B3F1005F38D009D8B3F1805F1CD0F9
S214400430B3F1C05F25D0B3F1006F50D109E0B3F1FE
S214400440405F3AD0B3F1605F37D0B3F1205F30D031
S21440045045E04FF000612A46224B984714F0010FC2
S21440046014BF7566356601203AE04FF080512A4643
S2144004701C4B984714F0010F14BF75663566012073
S2144004802EE04FF0C0512A46164B984714F0010F05
S21440049014BF75663566012022E04FF000512A46AB
S2144004A0104B984714F0010F14BF7566356601204F
S2144004B016E00D4B9847012012E004F0605204F01D
S2144004C00103009330462946B2F1605F14BF002214
S2144004D00122C4F38003054CA047012000E0002021
S2144004E002B070BDF90140008D024000C1024000DC
S2144004F02DE9F84381468846124B984705464846BC
S214400500114B9847054013D0104C04F16006236801
S214400510434508D16168294205D0E368404698477C
S214400520636825EA0305B44202D01034002DEED1AC
S214400530074B1B6823B1074B1B680BB148469847CF
S214400540BDE8F883E9024000ED0240006C08002058
S214400550140900206808002008B502480B21024B09
S214400560984708BD000E0E40F104400008B502480A
S2144005700C21024B984708BD00100E40F104400085
S21440058008B502480D21024B984708BD00120E40A0
S214400590F1044000184A136B23F0700318431063AD
S2144005A0936E13F0080F03D009E0013B03D11EE021
S2144005B04FF4006310498A6E12F0080FF5D00E4AC9
S2144005C0136B23F0030343F002031363906E10F0A3
S2144005D0080004D000207047013B03D109E04FF4E7
S2144005E0006305498A6E12F0080FF5D07047012067
S2144005F070470120704700BF00040E4038B11149D3
S2144006000B6A114A1A40114B13430B6270470D4A4E
S214400610136A23F45C1323F0030343F45C1343F0A0
S2144006200103090289B20B431362936E13F0010F64
S214400630FBD0044A136A43F09B7343F4803313623F
S214400640704700BF00040E40FCFFC8FE02003701A2
S214400650024B986E00F48030704700BF00040E4096
S2144006604FF00052014B9A62704700BF00040E40A4
S214400670024B986E00F00200704700BF00040E4028
S21440068022281ED81F280CD8114B9A690123834074
S2144006901A40934217D0012383400D4A136100202D
S2144006A070470B4BD3F808212038012383401A406B
S2144006B093420AD001238340054AC2F80031002005
S2144006C0704701207047002070470020704700BFE9
S2144006D000040E4000EB8111086A7047FEE700BF39
S2144006E008B5204B204A9A4213D9204B1D4A9A42BD
S2144006F01FD21146043203339B1A23F003030433FC
S214400700194A134452F8040B41F8040B9A42F9D1A3
S2144007100FE0144B144A9A420BD2144B114A9A1AC1
S214400720134881182AB151F8042943F8042D814210
S214400730F9D100BF0F4B104A9A420BD2131D0F4AF5
S214400740D21A22F003021A44043B002143F8041B49
S2144007509342FBD10A4B0B4A9A600B4B98470B4B84
S2144007609847FEE700000020881340004C08002011
S214400770841340001C0900204C0800201F0900205C
S21440078000ED00E000004000710A40008D09400086
S2144007903D4B1B6B03F00303032B5DD8DFE803F0F0
S2144007A0020E2B2B394B5B6913F0800F14BF4FF4AE
S2144007B000424FF4FA42364B1A604DE0324B1B6A09
S2144007C013F0807F03D0334A314B1A6044E0324AFC
S2144007D02F4B1A602C4B1B6A03F07003102B02D071
S2144007E0202B04D038E02D4A294B1A6034E0294AA1
S2144007F0274B1A6030E0244B1B6A13F0807F03D0EF
S214400800244A234B1A6012E0234A214B1A601E4B9F
S2144008101B6A03F07003102B02D0202B04D006E096
S2144008201E4A1B4B1A6002E01A4A194B1A60164BB6
S2144008301B6B03F00303022B134A07BF936A926AAB
S214400840D36AD26A1248C3F30A41036801FB0333F2
S214400850D2B2B3FBF2F303600B4B1B6B03F0700397
S214400860702B07D10A4A13680D49A1FB03135B0896
S21440087013607047044B1A6B0549C2F302120B68AB
S214400880D3400B60704700BF00040E4010140E406B
S2144008900C000020001BB70000093D0000127A0043
S2144008A0ABAAAAAA1A4B984207D84FF08063194AB7
S2144008B0136002F5007213607047174B984206D8D3
S2144008C0164B144A136002F5007213607047144BBF
S2144008D0984206D8134B0F4A136002F50072136015
S2144008E07047114B984206D8104B0A4A136002F5DF
S2144008F00072136070470E4B984294BF4FF004232B
S2144009000C4B044A136002F500721360704700BF38
S214400910FF2C3101000A0E40FF596202000100041C
S214400920FF86930300020004FFB3C40400030004E0
S214400930FFE0F50500050004094B1B6813B9094A9A
S214400940074B1A60064B1B681A180749914204DB8E
S2144009501046034A1060184670474FF0FF30704705
S214400960DC08002020390020FC7F022000B583B040
S21440097004480021044B98470190019B03B05DF862
S21440098004FB00BF00000140D506400080B582B0A1
S214400990DFF8D890C8472A4B98470B20294DA847E0
S2144009A0294E0024009430464FF40021012223466D
S2144009B0264FB8470B20A847009430464FF4801186
S2144009C001222346B8470B20A8474FF00108CDF830
S2144009D000801F484FF4801142462346B847C84718
S2144009E04FF400421B4B5A600B20A8470B20A847E9
S2144009F00D20A8470B20A847009430464FF48001AE
S214400A0042462346B84730464FF400110822124B60
S214400A1098473446114D124E20464FF48001A84761
S214400A203046104B984720464FF480010E4B98476F
S214400A3056200C4B984720464FF48001A847EBE7DA
S214400A408D01400081064000000E0E40C10240006D
S214400A5000120E4050140E408D024000F50140003A
S214400A601365410001000020F101400029014000CB
S214400A7070B50F4E0F4D761BB61018BF002405D02C
S214400A80013455F8043B9847A642F9D10A4E0B4D1F
S214400A90761B00F067FCB61018BF002406D0013461
S214400AA055F8043B9847A642F9D170BD70BD00BFCB
S214400AB070134000701340007813400070134000DD
S214400AC0024B13B1024800F005B870470000000022
S214400AD0E10A4000014600200246034600F0ECBB17
S214400AE038B5084B084DED1AAC1018BFED1805D0B8
S214400AF0013C55F8043D9847002CF9D1BDE83840F4
S214400B0000F03ABC8413400088134000F8B5234FE9
S214400B100C46064600F0BAFBBB685D6825F0030548
S214400B20291B01F6EF7121F47F6121F00F01A1F539
S214400B308054B4F5805F07DB3046002100F0AAFB06
S214400B40BB682B44984204D0304600F0A1FB0020FE
S214400B50F8BD3046614200F09DFB01300DD0104B91
S214400B60BA6819682D1B45F001053046091B5560CB
S214400B70196000F08DFB0120F8BD3046002100F0E2
S214400B8089FBBA68831A0F2BDEDD064C04492468BD
S214400B9043F00103001B53600860D5E73C04002087
S214400BA0EC0800204808002000294ED02DE9F041EE
S214400BB00C46804600F06AFB54F8047C624927F0F5
S214400BC00102A4F10805AB188E6858689E4220F0D2
S214400BD003005AD0FE0758600BD454F8087CED1B2F
S214400BE001F1080EAC6874453A4467D0EF68E76098
S214400BF0BC601C186468E4070CD4544F9C68BC4224
S214400C0002447CD0D868E06042F0010384606B60A8
S214400C10AA5003E042F001036B60AA50B2F5007F91
S214400C2014D2D20801EBC20348689F68AF609210A6
S214400C30012404FA02F21043EB6048609D60FD60B8
S214400C404046BDE8F04100F023BB7047530A042BF2
S214400C5047D8930903F13804600001EB80003A4915
S214400C608368834243D0596821F00301914202D9F8
S214400C709B689842F7D1DA68EA60AB604046956078
S214400C80DD60BDE8F04100F003BBFF07024407D437
S214400C9054F8083CED1A1A44A868EB68C36098609C
S214400CA02B4B1B6842F001009A4268608D60C7D3A8
S214400CB0284B40461968FFF729FFC1E719184968CD
S214400CC0C90709D4D9689B68024442F00100D9603C
S214400CD08B606860AA50B3E742F001036B60AA508D
S214400CE0AEE7142B14D803F15B046000B5E74A68FE
S214400CF0A4100120A04002434A601A46BCE742F0D6
S214400D0001034D610D61EC60AC606B60AA5097E7E3
S214400D10542B04D8130B03F16E0460009DE7B3F523
S214400D20AA7F04D8D30B03F17704600095E740F21E
S214400D305450834204D8930C03F17C0460008CE743
S214400D40FC207E2489E700BF3C04002044040020A9
S214400D5044080020E8080020024B0146186800F0CE
S214400D6003B800BF380400202DE9F04F01F10B0511
S214400D70162D83B0064627D935F0070500F1B68014
S214400D80A94200F2B38000F081FAB5F5FC7F22D28A
S214400D90C24FE80807EBC003DC689C4200F0C881FD
S214400DA06368E168A56823F00303234430465A6825
S214400DB0E96042F001028D605A6000F069FA08343A
S214400DC0204603B0BDE8F08F102900F28F8000F077
S214400DD05DFA1025DCE7680A00F08F80042800F2F0
S214400DE05481A80938304100AC4F07EB8101CC68EC
S214400DF0A14206D10CE0002A80F28280E468A1423B
S214400E0006D0636823F003035A1B0F2AF3DD01382C
S214400E100130A2493C6901F1080E744500F07D811D
S214400E20636823F003035A1B0F2A00F36381002AEA
S214400E30C1F814E0C1F810E073DAB3F5007F80F033
S214400E403981DB0801EBC3084FEAA30C4A68D8F89F
S214400E500890C4F80890012303FA0CF31343C4F82F
S214400E600C804B60C8F80840C9F80C40821001243A
S214400E7094409C4262D8234206D120F0030064008E
S214400E80234200F10400FAD007EBC008C44681466E
S214400E90DCF80C309C4507D141E1002980F25181B5
S214400EA0DB689C4500F03B815A6822F00302511BE8
S214400EB00F29F2DD1C46D3F80CC054F8088F5A1997
S214400EC045F0010941F00105C3F804903046C8F8E2
S214400ED00CC0CCF808807A613A61C2F80CE0C2F8DF
S214400EE008E05560515000F0D3F969E700240C2320
S214400EF02046336003B0BDE8F08F7E213F2073E785
S214400F002344E1685A68A56842F00102E960304629
S214400F108D605A6000F0BCF90834204603B0BDE846
S214400F20F08F234430465A6842F001025A6000F07F
S214400F30AFF90834204603B0BDE8F08FBC6863685C
S214400F4023F00308454504D8C5EB08030F2B00F3F0
S214400F508C80534BDFF858A11A68DAF8003001331A
S214400F602A4404EB080B00F0508102F580520F3201
S214400F7022F47F6222F00F0211463046019200F0C2
S214400F8089F9B0F1FF3F8146019A00F047818345D9
S214400F9000F2EE80434B1968CB451144196000F0CF
S214400FA04281DAF80000DFF808E101301BBFCBEBE6
S214400FB0090B5944CEF80090196019F0070100F06B
S214400FC00781C1F10800C1F58051814408314A4487
S214400FD0C2F30B02C2EB010A51463046019300F0C1
S214400FE059F9431C019B00F02C81C9EB0002524486
S214400FF042F001021968C7F808905144BC42C9F84B
S21440100004201960DFF89CA016D0B8F10F0F40F20C
S214401010EE806268A8F10C0323F00703E01802F0A4
S21440102001024FF0050E1A430F2B6260C0F804E031
S214401030C0F808E000F209811B4BBC681A68914270
S21440104088BF1960194B1A689142626888BF196058
S21440105022F003029542A2EB050301D80F2B04DCD5
S214401060304600F015F90024AAE6621943F0010361
S21440107045F0010565603046BA60536000F008F9F7
S2144010800834204603B0BDE8F08F142868D95428A9
S21440109000F29780280B6E304100A5E63C04002005
S2144010A0E8080020EC080020E4080020E0080020C3
S2144010B0480800205A0A042A55D9142A00F2A78064
S2144010C05B324FEA420C07EB8C0CDFF8BC81DCF855
S2144010D0081061457FD04A6822F00302934202D24C
S2144010E089688C45F7D1CA687B68E260A1609460E5
S2144010F0CC60BBE6631942F0010745F00105656028
S21440110030464B610B61C3F80CE0C3F808E05F6003
S2144011109A50083400F0BCF852E64B68A6E609F14F
S214401120010919F0030F0CF1080C7FF4B1AE2CE066
S21440113004F108036469A34208BF02303FF469AE75
S2144011402EE61A441C465168DB6854F8085F41F0A6
S214401150010151603046EB609D6000F099F82FE643
S2144011605B30410040E69A0938324FEA420CAAE723
S214401170BC42454B3FF40EAF9C68626822F00302C7
S21440118068E7D8F8008098457CD110F0030FA8F1A6
S214401190080300F1FF30F4D17B6823EA04037B6048
S2144011A064009C423FF6CAAE002C3FF4C7AE2342D2
S2144011B048467FF469AE6400234200F10400FAD04A
S2144011C062E6B0F5AA7F18D8E80B773041000BE608
S2144011D04FF48051FBE6D8F8043092104FF0010CE3
S2144011E00CFA02F21343C8F804300A467DE701239E
S2144011F0C9F804304C4600222CE740F2545398423B
S2144012001CD8A80C7C304100EEE51032B4E6542AD7
S21440121023D81A0B6E324FEA420C54E7BC68626819
S21440122022F0030216E7CBF30B0000287FF4B9AE9A
S2144012304244BB6842F001025A60FDE6FC217E2033
S214401240D2E501224FF0000AD4E604F10801304608
S214401250FFF7AAFCDAF80010EEE6B2F5AA7F04D84B
S214401260DA0B77324FEA420C2DE740F254518A426D
S21440127004D89A0C7C324FEA420C24E74FF0FC0C20
S2144012807E2220E77B688BE73C040020704700BF47
S214401290704700BF38B5074C002305460846236014
S2144012A0FFF74AFB431C00D038BD2368002BFBD019
S2144012B02B6038BD180900202DE9F047254C2568DD
S2144012C0D5F848410646884692469946CCB360686B
S2144012D01F2818DC431C7EB104EB80050121C5F8AD
S2144012E088A0D4F8887101FA00F21743022EC4F899
S2144012F08871C5F808911ED00230636044F820809B
S2144013000020BDE8F087144B03B34FF4C870FFF7D6
S21440131023FD0446D0B1D5F84831002780E8880040
S214401320C5F8484138460123C4F88871C4F88C7122
S214401330002EE1D0D0E7D4F88C110A43C4F88C21B3
S214401340DAE705F5A674C5F84841C0E74FF0FF3028
S214401350BDE8F08760134000590D40004300000090
S21440136010000020F8B500BFF8BC08BC9E46704789
S214401370C10A4000F1004000F8B500BFF8BC08BC08
S20C4013809E467047CD00400078
S214401388BFF35F8F0138FBD1704700BF00093D00AF
S21440139800000000FC02002064030020CC0300206C
S2144013A800000000000000000000000000000000F0
S2144013B800000000000000000000000000000000E0
S2144013C8000000005C134000000000000000000021
S2144013D800000000000000000000000000000000C0
S2144013E800000000000000000000000000000000B0
S2144013F800000000000000000000000000000000A0
S214401408000000000000000000000000000000008F
S214401418000000000000000000000000000000007F
S214401428000000000000000000000000000000006F
S214401438000000000000000001000000000000005E
S2144014480E33CDAB34126DE6ECDE05000B00000023
S214401458000000000000000000000000000000003F
S214401468000000000000000000000000000000002F
S214401478000000000000000000000000000000001F
S214401488000000000000000000000000000000000F
S2144017B800000000000000001000002000000000AC
S2144017C8000000003C0400203C04002044040020A4
S2144017D8440400204C0400204C04002054040020FC
S2144017E8540400205C0400205C04002064040020AC
S2144017F8640400206C0400206C040020740400205C
S214401808740400207C0400207C040020840400200B
S214401818840400208C0400208C04002094040020BB
S214401828940400209C0400209C040020A40400206B
S214401838A4040020AC040020AC040020B40400201B
S214401848B4040020BC040020BC040020C4040020CB
S214401858C4040020CC040020CC040020D40400207B
S214401868D4040020DC040020DC040020E40400202B
S214401878E4040020EC040020EC040020F4040020DB
S214401888F4040020FC040020FC040020040500208A
S214401898040500200C0500200C0500201405002037
S2144018A8140500201C0500201C05002024050020E7
S2144018B8240500202C0500202C0500203405002097
S2144018C8340500203C0500203C0500204405002047
S2144018D8440500204C0500204C05002054050020F7
S2144018E8540500205C0500205C05002064050020A7
S2144018F8640500206C0500206C0500207405002057
S214401908740500207C0500207C0500208405002006
S214401918840500208C0500208C05002094050020B6
S214401928940500209C0500209C050020A405002066
S214401938A4050020AC050020AC050020B405002016
S214401948B4050020BC050020BC050020C4050020C6
S214401958C4050020CC050020CC050020D405002076
S214401968D4050020DC050020DC050020E405002026
S214401978E4050020EC050020EC050020F4050020D6
S214401988F4050020FC050020FC0500200406002085
S214401998040600200C0600200C0600201406002032
S2144019A8140600201C0600201C06002024060020E2
S2144019B8240600202C0600202C0600203406002092
S2144019C8340600203C0600203C0600204406002042
S2144019D8440600204C0600204C06002054060020F2
S2144019E8540600205C0600205C06002064060020A2
S2144019F8640600206C0600206C0600207406002052
S214401A08740600207C0600207C0600208406002001
S214401A18840600208C0600208C06002094060020B1
S214401A28940600209C0600209C060020A406002061
S214401A38A4060020AC060020AC060020B406002011
S214401A48B4060020BC060020BC060020C4060020C1
S214401A58C4060020CC060020CC060020D406002071
S214401A68D4060020DC060020DC060020E406002021
S214401A78E4060020EC060020EC060020F4060020D1
S214401A88F4060020FC060020FC0600200407002080
S214401A98040700200C0700200C070020140700202D
S214401AA8140700201C0700201C07002024070020DD
S214401AB8240700202C0700202C070020340700208D
S214401AC8340700203C0700203C070020440700203D
S214401AD8440700204C0700204C07002054070020ED
S214401AE8540700205C0700205C070020640700209D
S214401AF8640700206C0700206C070020740700204D
S214401B08740700207C0700207C07002084070020FC
S214401B18840700208C0700208C07002094070020AC
S214401B28940700209C0700209C070020A40700205C
S214401B38A4070020AC070020AC070020B40700200C
S214401B48B4070020BC070020BC070020C4070020BC
S214401B58C4070020CC070020CC070020D40700206C
S214401B68D4070020DC070020DC070020E40700201C
S214401B78E4070020EC070020EC070020F4070020CC
S214401B88F4070020FC070020FC070020040800207B
S214401B98040800200C0800200C0800201408002028
S214401BA8140800201C0800201C08002024080020D8
S214401BB8240800202C0800202C0800203408002088
S210401BC83408002000000200FFFFFFFF72
S8044006E1D4
